S016000072656D6F74655F636F6E74726F6C2E7372656322
S11300000C9434000C9446000C9446000C94460066
S11300100C9446000C9446000C9446000C94460044
S11300200C9446000C9446000C9446000C94460034
S11300300C9446000C9446000C9446000C94460024
S11300400C9446000C9446000C9446000C94460014
S11300500C9446000C9446000C9446000C94460004
S11300600C9446000C94460011241FBECFEFD8E038
S1130070DEBFCDBF21E0A0E0B1E001C01D92A03001
S1130080B207E1F70E946A000C942F010C9400005F
S113009088E18093C10086E08093C20087E6809364
S11300A0C4000895E0ECF0E0908195FFFDCF8093CB
S11300B0C6000895109280008BE08093810084EC48
S11300C099E09093890080938800B19BFECF82E0F1
S11300D086BB08950E9448001AB88FEF8BB984B983
S11300E015B898EF95B989B18C708C30D9F710E0B8
S11300F00F2EF5E0EF2EF02D0F2EF5E0DF2EF02D74
S11301000F2EF8EF7F2EF02D512CD52D0F2EFEEF54
S1130110AF2EF02D882483940F2EFDEFBF2EF02DEB
S11301200F2EFBEFCF2EF02D6894442441F8F82CC9
S11301300F2EF3E06F2EF02D942C04C0E52C01C09B
S1130140E82C182D75B80E945A00C9B1CC70111151
S113015003C081E60E9452001D2FCC30A1F389B167
S11301608C708C3081F301C0D92CA5B80E945A0040
S113017089B18C708C3041F0EF2C883009F4ED2E6D
S113018001E010E0DD2E02C000E010E0B5B80E94EE
S11301905A0089B18C708C3039F0EF2C883009F416
S11301A0ED2E0F5F1F4FDF2CC5B80E945A00C9B156
S11301B0CC70CC3009F44AC0EF2CC83009F4ED2ED1
S11301C00230110509F047C0C43039F485E30E94B8
S11301D05200C83091F5D62CB4CFC83029F681E34B
S11301E00E945200D62C11C0E11017C0D11005C0D6
S11301F082E30E945200A5CFD42C81E0D81205C01E
S113020083E30E945200E52C9CCF82E0D81296CF63
S113021084E30E945200E52C94CF81E0E81291CF50
S1130220D11004C088E30E9452008BCF81E0D81221
S113023005C086E30E94520084CFD62C82E0D812F7
S11302407FCF87E30E945200E82C7BCF0330110557
S113025009F48BCFC9CFC83079F2D42CDECFF8940F
S1050260FFCFCA
S9030000FC
