:020000040800F2
:10000000A006002089010008910100089301000862
:100010009501000897010008990100080000000000
:100020000000000000000000000000009B0100082C
:100030009D010008000000009F010008A1010008C8
:10004000A3010008A3010008A3010008A301000800
:10005000A3010008A3010008A3010008A3010008F0
:10006000A3010008A3010008A3010008A3010008E0
:10007000A3010008A3010008A3010008A3010008D0
:10008000A3010008A3010008A3010008A3010008C0
:10009000A3010008A3010008A3010008A3010008B0
:1000A000A301000831080008A3010008A30100080B
:1000B000A3010008A3010008710A0008A3010008B9
:1000C000A3010008A3010008A3010008A301000880
:1000D000A1050008A3010008A3010008A30100086E
:1000E000A3010008A3010008A301000800F002F822
:1000F00000F03AF80AA090E8000C82448344AAF188
:100100000107DA4501D100F02FF8AFF2090EBAE885
:100110000F0013F0010F18BFFB1A43F0010318473B
:100120003C1300005C130000103A24BF78C878C16B
:10013000FAD8520724BF30C830C144BF04680C60ED
:10014000704700000023002400250026103A28BF35
:1001500078C1FBD8520728BF30C148BF0B60704739
:100160001FB51FBD10B510BD00F031F81146FFF7E7
:10017000F7FF00F048FF00F04FF803B4FFF7F2FF7D
:1001800003BC00F057F800000948804709480047C1
:10019000FEE7FEE7FEE7FEE7FEE7FEE7FEE7FEE737
:1001A000FEE7FEE704480549054A064B7047000094
:1001B000D1070008ED000008A0000020A0060020E4
:1001C000A0020020A00200207047704770477546CB
:1001D00000F02CF8AE4605006946534620F00700B3
:1001E000854618B020B5FFF7DDFFBDE820404FF091
:1001F00000064FF000074FF000084FF0000B21F011
:100200000701AC46ACE8C009ACE8C009ACE8C009DD
:10021000ACE8C0098D46704710B50446AFF30080C6
:100220002046BDE81040FFF7A8BF00000048704717
:100230004000002001491820ABBEFEE72600020066
:100240007047000038B50446204600F0E3F8ADF8EA
:10025000000018208DF8030002208DF80200694686
:10026000014800F03FF838BD0008014038B50446A9
:10027000204600F0CFF8ADF8000010208DF8030004
:1002800003208DF802006946014800F02BF838BDC4
:100290000008014038B50446204600F0BBF8ADF830
:1002A000000018208DF8030002208DF80200694636
:1002B000014800F017F838BD000C014038B504467D
:1002C000204600F0A7F8ADF8000010208DF80300DC
:1002D00003208DF802006946014800F003F838BD9C
:1002E000000C01402DE9F0410246002500260020C7
:1002F00000230024002791F803C00CF00F0591F8AB
:1003000003C00CF0100CBCF1000F03D091F802C038
:100310004CEA050591F800C0BCF1000F31D014681B
:1003200000202BE04FF0010C0CFA00F3B1F800C0F4
:100330000CEA03069E4220D183004FF00F0C0CFA0A
:1003400003F7BC4305FA03FC4CEA040491F803C02C
:10035000BCF1280F06D14FF0010C0CFA00FCC2F8DA
:1003600014C00AE091F803C0BCF1480F05D14FF06A
:10037000010C0CFA00FCC2F810C0401C0828D1D3B4
:100380001460B1F800C0BCF1FF0F34DD54680020E8
:100390002EE000F1080C4FF0010808FA0CF3B1F858
:1003A00000C00CEA03069E4221D183004FF00F0CDF
:1003B0000CFA03F7BC4305FA03FC4CEA040491F879
:1003C00003C0BCF1280F05D100F1080C08FA0CF8A5
:1003D000C2F8148091F803C0BCF1480F07D100F1B6
:1003E000080C4FF0010808FA0CF8C2F81080401C05
:1003F0000828CED35460BDE8F08102460020D368BF
:100400000B400BB1012000E00020704741617047B4
:10041000016170470146102931D2DFE801F0080A76
:100420000C0E10121416181B1E2124272A2D012031
:1004300070470220FCE70420FAE70820F8E71020C4
:10044000F6E72020F4E74020F2E78020F0E74FF4C1
:100450008070EDE74FF40070EAE74FF48060E7E763
:100460004FF40060E4E74FF48050E1E74FF40050B0
:10047000DEE74FF48040DBE74FF40040D8E7002090
:10048000D6E7000070B5002100230F22C47804B322
:10049000154C246804F4E064C4F5E064210AC1F159
:1004A0000403CA40447804FA03F1847814402143D9
:1004B00009010E4C0678A155047804F01F050124AB
:1004C000AC4005786D11AD0005F1E025C5F800419F
:1004D00009E0047804F01F050124AC40044D0678BF
:1004E000761145F8264070BD0CED00E000E400E018
:1004F00080E100E008B501208DF8030019208DF897
:10050000000002208DF801006846FFF7BBFF08BD20
:1005100008B501208DF803001E208DF80000022090
:100520008DF801006846FFF7ADFF08BD29B1064A06
:10053000D2690243044BDA6104E0034AD269824380
:10054000014BDA61704700000010024029B1064AF1
:1005500092690243044B9A6104E0034A9269824320
:10056000014B9A61704700000010024010B5012154
:100570004804FFF7DBFF01210846FFF7E7FF0121F1
:100580000420FFF7E3FF01210820FFF7DFFF01212F
:100590001020FFF7DBFF01218803FFF7C7FF10BD25
:1005A00010B5164800F050F8C4B215480068154957
:1005B0000860134804604FF400411348FFF71DFF23
:1005C000012808D1C1031048FFF720FF00210B4884
:1005D00000F03DF810E0242000280BDB00F01F02A3
:1005E00001219140094A430942F82310BFF34F8F7C
:1005F000BFF36F8F00BF00BF10BD00000038004088
:100600000400002008000020000C014080E100E010
:1006100021B1028842F04002028004E002884FF6D5
:10062000BF731A400280704730B5002400230C11BC
:100630000125A540ABB21AB185881D43858002E033
:1006400085889D43858030BD0146888970478181BA
:10065000704710B50022028802F441520B884C8882
:1006600023438C882343CC8823430C8923434C8920
:1006700023438C892343CC8923431A430280838BF1
:100680004FF2FF74234083830B8A038210BD000066
:1006900000B585B00020ADF800004FF48270ADF8D1
:1006A00002000020ADF804000220ADF80600012091
:1006B000ADF808004002ADF80A003820ADF80C0093
:1006C0000020ADF80E0069460648FFF7C2FF012280
:1006D00060210448FFF7A8FF01210248FFF798FFB7
:1006E00005B000BD0038004010B500F001F810BDA5
:1006F0000CB50020019000903348006840F4803031
:100700003149086000BF3048006800F400300090B4
:100710000198401C0190009818B90198B0F5A06F9D
:10072000F1D12948006800F4003010B10120009098
:1007300001E0002000900098012843D12348006880
:1007400040F01000214908600846006820F00300CE
:1007500008600846006840F0020008601A484068D7
:10076000194948600846406848600846406840F4B7
:10077000806048600846406820F47C104860084665
:10078000406840F4E81048600846006840F0807017
:10079000086000BF0C48006800F000700028F9D025
:1007A0000948406820F0030007494860084640684F
:1007B00040F00200486000BF0348406800F00C00B1
:1007C0000828F9D10CBD00000010024000200240B2
:1007D00010B51348006840F0010011490860084650
:1007E0004068104908400E494860084600680E49B4
:1007F00008400B4908600846006820F48020086023
:100800000846406820F4FE0048604FF41F008860EE
:10081000FFF76AFF4FF000600449086010BD000058
:10082000001002400000FFF8FFFFF6FE08ED00E0B8
:1008300010B50121414800F070F900287CD04048F3
:100840000068F02874DD3F48006838B920213E4830
:10085000FFF7DEFD01203B4908600AE039480068E7
:10086000012806D120213848FFF7D0FD0020354966
:10087000086036480068401C344908600846006833
:10088000012802D1FA2000F0AFFB304800680328AD
:1008900002D1C82000F0A8FB2C480068052815D11B
:1008A00000212B4800F00DFA40F2DC51284800F0FE
:1008B0000AFA4FF4167000F097FB264826490860A4
:1008C0002648274908602748274908601F480068CC
:1008D00006282DD100211E4800F0F3F900211C4804
:1008E00000F0F1F9C82000F07FFB40F2DC5118481D
:1008F00000F0E7F90021164800F0E5F94FF44870E0
:1009000000F072FB0021124800F0DBF940F2DC51EC
:100910000F4800F0D8F94FF4FA6000F065FB134877
:100920000D49086012480E49086012480E490860D7
:100930000121024800F0E2F810BD0000002C014047
:10094000040000203C0000200008014000000020BE
:100950000004004000801D440C0000200000F04313
:10096000100000200000D7431400002000803B440A
:1009700000001644008009440EB50121C802FFF7AB
:10098000E5FD45F6BF50ADF800000020ADF80200CF
:1009900040F22B10ADF804000020ADF806008DF8F1
:1009A00008006946064800F091F90121044800F06A
:1009B000A8F801221146024800F0C0F80EBD000060
:1009C000002C01401FB56020ADF800000020ADF8FC
:1009D00006000120ADF802000020ADF808006946CD
:1009E000034800F0B5F80821014800F003F91FBDE5
:1009F000000400401FB56020ADF800000020ADF8F5
:100A000006000120ADF802000020ADF8080069469C
:100A1000034800F0FDF80821014800F049F91FBD26
:100A2000000400400EB501210220FFF77FFD40F2D7
:100A3000CF20ADF800000020ADF8020041F2873071
:100A4000ADF804000020ADF806008DF808006946F6
:100A5000064800F03BF90121044800F052F8012259
:100A60001146024800F06AF80EBD00000004004084
:100A700010B501210C4800F050F8A0B100F0E6FAE2
:100A80000A480078012808D10021094800F019F926
:100A90000021074800F017F901E000F0F7F9012103
:100AA000014800F02BF810BD00080040380000207D
:100AB000000400400EB501210420FFF737FD40F689
:100AC0005F10ADF800000020ADF802000E20ADF878
:100AD00004000020ADF806008DF8080069460648BD
:100AE00000F0F4F80121044800F00BF8012211464F
:100AF000014800F023F80EBD00080040CA430282FE
:100B0000704721B1028842F00102028004E00288AD
:100B10004FF6FE731A400280704730B5024600203F
:100B200000230024158A05EA0103958905EA0104DA
:100B300013B10CB1012000E0002030BD1AB183894F
:100B40000B43838102E083898B43838170470000DC
:100B500070B5002400220023058C4FF6EF76354057
:100B60000584028C8388048B48F6FF752C404FF671
:100B7000FF452C400D884FF6FF7606EA05252C43ED
:100B80004FF6DF752A400D8906EA05152A434D8880
:100B900006EA05152A43154DA84202D0144DA84275
:100BA0001DD14FF67F752A404D894FF6FF7606EA34
:100BB00005152A434FF6BF752A408D8806EA0515AC
:100BC0002A434FF6FF352B404FF2FF752B408D899E
:100BD00006EA85052B43CD8906EA85052B438380EC
:100BE0000483CD880587028470BD0000002C01407D
:100BF000003401400A460021018B4FF2FF73194077
:100C00004FF6FF7303EA0223194301837047000084
:100C100070B5002400220023058C4FF6FF66354096
:100C20000584028C8388848B4FF68F752C404FF699
:100C3000FC752C400D882C434FF6FF552A400D893A
:100C40004FF6FF7606EA05252A434D8806EA052574
:100C50002A43154DA84202D0144DA8421DD14FF28F
:100C6000FF752A404D894FF6FF7606EA05252A438F
:100C70004FF6FF352A408D8806EA05252A434EF6B1
:100C8000FF752B404DF6FF752B408D8906EA051543
:100C90002B43CD8906EA05152B4383808483CD88B9
:100CA0008587028470BD0000002C014000340140A3
:100CB0000A460021818B4FF6F77319401143818357
:100CC00070470187704781877047000000220288C3
:100CD0001D4B98420ED01D4B98420BD0B0F1804F67
:100CE00008D01B4B984205D01A4B984202D01A4BA1
:100CF000984204D14FF68F731A404B881A43174B12
:100D0000984207D0164B984204D04FF6FF431A4042
:100D1000CB881A4302808B8883850B8803850A4B16
:100D200098420BD0094B984208D00E4B984205D000
:100D30000D4B984202D00D4B984201D10B7A03869D
:100D40000123838270470000002C014000340140E1
:100D50000004004000080040000C0040001000406B
:100D600000140040004001400044014000480140A0
:100D70002DE9FC5F04460E4615461B48006800F04E
:100D800009FA01901948006800F004FA3146009011
:100D900000F018FA8346214600F0E0FA82460199F5
:100DA00000F0E6FA8146124900F0E2FA804600F0CF
:100DB000D1F987B239460F48FFF783FF0B48006827
:100DC00000F0E8F98246294600F0FCF98146214608
:100DD00000F05EF9804600F0BDF987B2394605485B
:100DE000FFF771FFBDE8FC9F1C00002018000020E9
:100DF00000002F44000400402DE9FC5F04460E462D
:100E000015461D48006800F0C5F901901B480068B0
:100E100000F0C0F93146009000F0D4F98346214635
:100E200000F036F98246019900F0A2FA8146144991
:100E300000F02EF9804600F08DF987B2394611484E
:100E4000FFF73FFF0D48006800F0A4F983462946EC
:100E500000F0B8F98246214600F080FA81460A493E
:100E600000F086FA804600F075F987B239460548E9
:100E7000FFF729FFBDE8FC9F1C00002018000020A0
:100E800000006144000400400000FA4370B54A4885
:100E9000006808280CDB484800680F2808DC474831
:100EA00002684748016847480068FFF7A5FF81E0EE
:100EB00041480068072808DC40480268404801684B
:100EC00041480068FFF798FF74E03B480068F0284D
:100ED0001BD039480068D02817D037480068B028A0
:100EE00013D03548006890280FD033480068702828
:100EF0000BD031480068502807D02F4800683028B0
:100F000003D02D480068102808D1304802683048C6
:100F100001682C480068FFF72BFF4BE0264800686B
:100F2000E02823D024480068A0281FD02248006869
:100F300060281BD020480068202817D01E48006871
:100F4000C02813D01C48006840280FD01A480068F9
:100F500080280BD0184800687C2807D01648006805
:100F60007D2803D0144800687F2808D119480268FA
:100F70001948016814480068FFF7FAFE1AE017489C
:100F8000006800F007F9064615480168304600F091
:100F9000E5F9054600F0DEF884B221461148FFF776
:100FA00090FE0F48006800F0D5F884B221460D4845
:100FB000FFF789FE70BD0000040000202000002023
:100FC0002400002010000020140000202C0000202D
:100FD0002800002034000020300000201C000020E9
:100FE0000C0000200004004010B5002106E00022A3
:100FF00001E05B1C521C8242FBD3491C41F6641485
:10100000A142F4D310BDFFF7B1FAFFF7B5FCFFF72B
:1010100071FAFFF74FFDFFF77BFA0D20FFF73AF962
:101020000F20FFF74BF9FFF733FB0520FFF71EF901
:10103000FFF7F8FC0720FFF705F90020FFF72AF972
:10104000FFF7C0FCFFF7D6FC00BFFEE710B54FF47A
:1010500000410D48FFF7DCF900210C48FFF7F7FAD3
:10106000242000280DDB00BF00BF00F01F0201217B
:1010700091404209920002F1E022C2F8001100BF43
:1010800000BF00BF10BD0000000C01400038004050
:1010900090EA010F48BF81F0004100F17081421ACF
:1010A0003CBF801A89184FEAD0524FF07F4C1CEA9F
:1010B000410FA2EBD15318BF9CEA026F00F03B80B6
:1010C0004FF0004C4CEA00204CEA012121FA03FCCD
:1010D00010EB0C0C1ED202F1FF325FEA1C2040EB39
:1010E000C25038BF70471CF07F0F4FEA400C18BF4A
:1010F000BCF17F4F38BF7047C3F12003994008BF50
:1011000020F00100BCF17F4F38BF7047A0F1C04014
:1011100000F01FB94FEA3C00000A40EBC25028BF64
:101120001CF0FF0F4FEA400CE6D018BFBCF17F4F18
:1011300038BF7047EAE79CEA026F05D010EA5C0FFF
:1011400008BF00F00040704710B500F0BCF800BFC9
:1011500064FBBE3EC10DD1F19E0206DB4FEA0023C7
:1011600043F0004323FA02F07047004207D54FEAEC
:101170004001B1F1FE4F02D24FF00000704710B5B0
:1011800000F0A1F849922480002070476FEA200007
:101190007047000010F0004148BF4042B0FA80F3B1
:1011A00010FA03F2C3F19D030BD051EAC35101EBD6
:1011B0001220530638BF704700F1010008BF20F02D
:1011C000010070474FF47F0C1CEAD0121EBF1CEACE
:1011D000D11392EA0C0F93EA0C0F00F0478090EACB
:1011E000010F48BF42F480724FF0004C4CEA0020DF
:1011F0004CEA012102EB0302A0FB0113A2F500025D
:10120000002918BF43F001035B0028BF4FEA3303F6
:1012100042EB22425FEA132C4CEBC2502EBFBCEBD8
:10122000436FB2F57C0F70474FEA036CBCF1004F7F
:1012300008BF20F00100B2F57C0F38BF70470BD516
:1012400082F0FF0212F5803FC8BF704700F1C04036
:10125000D8BF00F00040704700F5000C5FEA4C0C6E
:1012600048BF7047B0F1C04000F073B890EA010F7A
:101270000CEAD11348BF42F48072624538BF63451F
:1012800004D280EA010000F00040704710B500F081
:101290001AF800BF8900013E00F007B800F009B855
:1012A0005FEA410C5FEA1C6C08D080EA010000F0A4
:1012B00050B85FEA400C5FEA1C6CF6D14FF000407A
:1012C000A0F5800070470EF1020E2EF0030E5EF8BE
:1012D000044B244204D44FEA4102B2F17F4F11D8AB
:1012E0004FEA4003B3F17F4F0CD80ED14FEAD07CC8
:1012F000B2F17F4F0CEB4C0C0CF1020C08BF4CEB25
:10130000D17C04E04FF0080C01E04FEAD17C0CEBFB
:101310004C0324FA03F404F00704B4F1040C06D2DD
:101320000EEB840CBDE810404CF0010C6047DFE888
:101330000CF0070802024FF00040A0F5800010BD3D
:101340000846420018BFD2F1807288BF00F000400A
:1013500010BDFF2141EAD050C005704780F0004029
:1013600090EA010F7FF59BAE81F0004100F007B8D5
:1013700090EA010F48BF81F000413FF590AE421A5C
:1013800004D882F00042A0EB020011444FEAD05290
:101390004FF07F4C1CEA410FA2EBD15318BF9CEADF
:1013A000026F4AD04FF0004C4CEA00204CEA012179
:1013B00021FA03FCB0EB0C0C0FD412F0FE0F36D068
:1013C0005FEA4C001DD5001240EBC25038BF704799
:1013D0001CF03F0F18BF70470BE0A2F101025FEA5B
:1013E0001C2040EBC25038BF70471CF07F0F18BF65
:1013F0007047C3F12003994014BF401E20F0010044
:10140000704780084FEA122308BF7047B0FA80FC8B
:10141000A2EB0C02CCF1280C60FA0CF093EA122F2C
:1014200004BF00EBC25070474FEAC3707047130A05
:101430005FEADC1008BF7047F6E79CEA026F04D051
:1014400010EA5C0F08BF0020704710B5FFF73BFFA4
:1014500040DFF63E81F00040704700007C14000839
:10146000000000204000000028010008BC14000813
:101470004000002060060000440100080000000059
:1014800000000000000000000080544400002F44D1
:1014900000800944FA0000009CFFFFFFCDCCCC3D4A
:1014A00000000000000000400000404000008040BC
:0C14B000000000400000000000000000F0
:040000050800018965
:00000001FF
