:020000040800F2
:10000000780600208901000891010008930100088A
:100010009501000897010008990100080000000000
:100020000000000000000000000000009B0100082C
:100030009D010008000000009F010008A1010008C8
:10004000A3010008A3010008A3010008A301000800
:10005000A3010008A3010008A3010008A3010008F0
:10006000A3010008A3010008A3010008A3010008E0
:10007000A3010008A3010008A3010008A3010008D0
:10008000A3010008A3010008A3010008A3010008C0
:10009000A3010008A3010008A3010008A3010008B0
:1000A000A3010008A3010008A3010008A3010008A0
:1000B000A3010008A3010008A3010008A301000890
:1000C000A3010008A3010008A3010008A301000880
:1000D000A3010008A3010008A3010008A301000870
:1000E000A3010008A3010008A301000800F002F822
:1000F00000F03AF80AA090E8000C82448344AAF188
:100100000107DA4501D100F02FF8AFF2090EBAE885
:100110000F0013F0010F18BFFB1A43F0010318473B
:10012000540C0000740C0000103A24BF78C878C149
:10013000FAD8520724BF30C830C144BF04680C60ED
:10014000704700000023002400250026103A28BF35
:1001500078C1FBD8520728BF30C148BF0B60704739
:100160001FB51FBD10B510BD00F031F81146FFF7E7
:10017000F7FF00F049FD00F04FF803B4FFF7F2FF7E
:1001800003BC00F057F800000948804709480047C1
:10019000FEE7FEE7FEE7FEE7FEE7FEE7FEE7FEE737
:1001A000FEE7FEE704480549054A064B7047000094
:1001B0008D060008ED000008780000207806002079
:1001C000780200207802002070477047704775461B
:1001D00000F02CF8AE4605006946534620F00700B3
:1001E000854618B020B5FFF7DDFFBDE820404FF091
:1001F00000064FF000074FF000084FF0000B21F011
:100200000701AC46ACE8C009ACE8C009ACE8C009DD
:10021000ACE8C0098D46704710B50446AFF30080C6
:100220002046BDE81040FFF7A8BF00000048704717
:100230001800002001491820ABBEFEE7260002008E
:1002400070472DE9F04102460025002600200023DA
:100250000024002791F803C00CF00F0591F803C0AB
:100260000CF0100CBCF1000F03D091F802C04CEA66
:10027000050591F800C0BCF1000F31D014680020D2
:100280002BE04FF0010C0CFA00F3B1F800C00CEABF
:1002900003069E4220D183004FF00F0C0CFA03F7A7
:1002A000BC4305FA03FC4CEA040491F803C0BCF11A
:1002B000280F06D14FF0010C0CFA00FCC2F814C054
:1002C0000AE091F803C0BCF1480F05D14FF0010CD2
:1002D0000CFA00FCC2F810C0401C0828D1D31460EE
:1002E000B1F800C0BCF1FF0F34DD546800202EE0EF
:1002F00000F1080C4FF0010808FA0CF3B1F800C047
:100300000CEA03069E4221D183004FF00F0C0CFA39
:1003100003F7BC4305FA03FC4CEA040491F803C05C
:10032000BCF1280F05D100F1080C08FA0CF8C2F84E
:10033000148091F803C0BCF1480F07D100F1080CFC
:100340004FF0010808FA0CF8C2F81080401C082889
:10035000CED35460BDE8F08100B589B001210420FE
:1003600000F0A6F80121082000F0A2F801210846BB
:1003700000F09EF8C020ADF8100018208DF8130092
:1003800002208DF8120004A93E48FFF75AFF03200F
:10039000ADF8100018208DF8130002208DF812001F
:1003A00004A93948FFF74DFF0121022000F070F841
:1003B00040F2CF20ADF804000020ADF8060041F275
:1003C0008730ADF808000020ADF80A008DF80C0069
:1003D00001A92E4800F0FAFA01212C4800F086F914
:1003E0006020ADF814000020ADF81A000120ADF82F
:1003F00016000020ADF81C0005A9244800F082F981
:100400000821224800F0CAF96020ADF8140000204D
:10041000ADF81A000120ADF816000020ADF81C0060
:1004200005A91A4800F0C4F90821184800F012FA8A
:100430006020ADF814000020ADF81A000120ADF8DE
:1004400016000020ADF81C0005A9104800F010FAB5
:1004500008210E4800F05CFA6020ADF8140000207E
:10046000ADF81A000120ADF816000020ADF81C0010
:1004700005A9064800F056FA0821044800F090FA51
:1004800009B000BD00080140000C0140000400401C
:1004900029B1064AD2690243044BDA6104E0034AF7
:1004A000D2698243014BDA617047000000100240BC
:1004B00029B1064A92690243044B9A6104E0034A57
:1004C00092698243014B9A6170470000001002401C
:1004D00030B500210022002400232D4D6D6805F069
:1004E0000C0121B1042905D0082923D105E0294DAB
:1004F000056022E0274D05601FE0254D6D6805F47D
:100500007012234D6D6805F48034022505EB92428C
:100510001CB9214D554305600BE01D4D6D6805F478
:1005200000351DB11C4D5543056002E0194D554382
:10053000056002E0174D056000BF00BF144D6D68F7
:1005400005F0F0010909154D6B5C0568DD4045605B
:100550000F4D6D6805F4E061090A104D6B5C45684C
:10056000DD4085600A4D6D6805F46051C90A0B4D88
:100570006B5C4568DD40C560054D6D6805F4404124
:10058000890B074D6B5CC568B5FBF3F5056130BDA4
:100590000010024000127A0000093D000100002016
:1005A0001100002010B500F001F810BD0CB50020BE
:1005B000019000903348006840F480303149086071
:1005C00000BF3048006800F4003000900198401CE3
:1005D0000190009818B90198B0F5A06FF1D12948A1
:1005E000006800F4003010B10120009001E000200C
:1005F00000900098012843D12348006840F0100083
:10060000214908600846006820F003000860084699
:10061000006840F0020008601A48406819494860C4
:100620000846406848600846406840F4806048607A
:100630000846406820F47C1048600846406840F452
:10064000E81048600846006840F08070086000BF0D
:100650000C48006800F000700028F9D00948406894
:1006600020F00300074948600846406840F0020057
:10067000486000BF0348406800F00C000828F9D12A
:100680000CBD0000001002400020024010B51348CD
:10069000006840F0010011490860084640681049B0
:1006A00008400E494860084600680E4908400B495A
:1006B00008600846006820F480200860084640680A
:1006C00020F4FE0048604FF41F008860FFF76AFFC7
:1006D0004FF000600449086010BD000000100240A7
:1006E0000000FFF8FFFFF6FE08ED00E021B10288F0
:1006F00042F00102028004E002884FF6FE731A40C5
:100700000280704770B5002400220023058C4FF64C
:10071000FE7635400584028C8388048B4FF68F75F6
:100720002C40B51E2C400D882C43751E2A400D8987
:100730002A434D882A43144DA8420BD0134DA8429A
:1007400008D0134DA84205D0124DA84202D0124D38
:10075000A84213D14FF6F7752A404D892A434FF628
:10076000FB752A408D882A434FF6FF652B404FF6D4
:10077000FF552B408D892B43CD892B4383800483E8
:10078000CD888586028470BD002C01400034014074
:100790000040014000440140004801400A46002159
:1007A000018B4FF6F7731940114301837047000026
:1007B00070B5002400220023058C4FF6EF763540FB
:1007C0000584028C8388048B48F6FF752C404FF615
:1007D000FF452C400D884FF6FF7606EA05252C4391
:1007E0004FF6DF752A400D8906EA05152A434D8824
:1007F00006EA05152A43154DA84202D0144DA84219
:100800001DD14FF67F752A404D894FF6FF7606EAD7
:1008100005152A434FF6BF752A408D8806EA05154F
:100820002A434FF6FF352B404FF2FF752B408D8941
:1008300006EA85052B43CD8906EA85052B4383808F
:100840000483CD880587028470BD0000002C014020
:10085000003401400A460021018B4FF2FF7319401A
:100860004FF6FF7303EA0223194301837047000028
:1008700070B5002400220023058C4FF6FF6635403A
:100880000584028C8388848B4FF68F752C404FF63D
:10089000FC752C400D882C434FF6FF552A400D89DE
:1008A0004FF6FF7606EA05252A434D8806EA052518
:1008B0002A43154DA84202D0144DA8421DD14FF233
:1008C000FF752A404D894FF6FF7606EA05252A4333
:1008D0004FF6FF352A408D8806EA05252A434EF655
:1008E000FF752B404DF6FF752B408D8906EA0515E7
:1008F0002B43CD8906EA05152B4383808483CD885D
:100900008587028470BD0000002C01400034014046
:100910000A460021818B4FF6F773194011438183FA
:100920007047000070B5002200230024058C4EF6AD
:10093000FF7635400584038C8488828B48F6FF75EA
:100940002A404FF6FF452A400D884FF6FF7606EA0B
:1009500005252A434DF6FF752B400D8906EA05351E
:100960002B434D8806EA05352B430B4DA84202D098
:100970000A4DA84208D14BF6FF752C408D894FF6E1
:10098000FF7606EA85152C4384808283CD88A0F803
:100990004050038470BD0000002C01400034014031
:1009A0000A460021818B4FF2FF7319404FF6FF7307
:1009B00003EA0223194381837047818670470187C8
:1009C000704781877047A0F8401070470022028866
:1009D0001D4B98420ED01D4B98420BD0B0F1804F6A
:1009E00008D01B4B984205D01A4B984202D01A4BA4
:1009F000984204D14FF68F731A404B881A43174B15
:100A0000984207D0164B984204D04FF6FF431A4045
:100A1000CB881A4302808B8883850B8803850A4B19
:100A200098420BD0094B984208D00E4B984205D003
:100A30000D4B984202D00D4B984201D10B7A0386A0
:100A40000123838270470000002C014000340140E4
:100A50000004004000080040000C0040001000406E
:100A600000140040004001400044014000480140A3
:100A700000B585B001210520FFF71AFD4FF4007085
:100A8000ADF8100003208DF8120018208DF8130027
:100A900004A91548FFF7D5FB4FF48060ADF81000AE
:100AA00004208DF8130004A90F48FFF7CAFB0121A9
:100AB0008803FFF7FDFC4FF4165000900020ADF8BE
:100AC0000400ADF80600ADF80800ADF80C000C20ED
:100AD000ADF80A006946054800F024F801210348F2
:100AE00000F006F805B000BD0008014000380140E4
:100AF00021B1828942F40052828104E082894DF65C
:100B0000FF731A408281704702460020B1F5007FD2
:100B100000D100BF13880B400BB1012000E0002082
:100B2000704700002DE9F04786B005460E460024C8
:100B3000A24600BFA1460027B08900B100BF2F46E2
:100B40002C8A4CF6FF700440F08804432C82AC8958
:100B50004EF6F3100440B088318908437189084388
:100B60000443AC81AC8A4FF6FF400440B089044393
:100B7000AC8201A8FFF7ACFC1F48874202D1DDF828
:100B800010A001E0DDF80CA0A88900F4004040B1FD
:100B90000AEBCA0000EB0A1031684900B0FBF1F81B
:100BA00007E00AEBCA0000EB0A1031688900B0FBCD
:100BB000F1F86420B8FBF0F004012009642101FB86
:100BC0001089A88900F4004040B1322000EBC90030
:100BD000B0FBF1F000F00700044308E0322000EB26
:100BE00009106421B0FBF1F000F00F0004432C81E8
:100BF00006B0BDE8F0870000003801400146888853
:100C0000C0F3080070470000FFF732FFFFF7A4FBB6
:100C1000A9E000BF20215448FFF776FF0028F9D053
:100C20005148FFF7EBFF514908700846007831281A
:100C300012D100214E48FFF7C0FE40F2FA514C4855
:100C4000FFF7BDFE40F2DC514948FFF7BAFE002134
:100C50004748FFF7B8FE86E044480078332812D1B1
:100C600040F2FA514248FFF7A8FE00214048FFF742
:100C7000A6FE00213E48FFF7A4FE40F2DC513C48AE
:100C8000FFF7A1FE6FE039480078322812D1002129
:100C90003748FFF792FE40F2FA513548FFF78FFED2
:100CA00000213348FFF78DFE40F2DC513048FFF75A
:100CB0008AFE58E02D480078342812D140F2FA51CB
:100CC0002B48FFF77AFE00212948FFF778FE40F213
:100CD000DC512748FFF775FE00212548FFF773FE1A
:100CE00041E022480078372812D100212048FFF740
:100CF00064FE4FF42F711E48FFF761FE40F6282175
:100D00001B48FFF75EFE00211948FFF75CFE2AE052
:100D100016480078362812D100211548FFF74DFEFD
:100D20004FF4FA711248FFF74AFE40F2DC511048C6
:100D3000FFF747FE00210E48FFF745FE13E00B4882
:100D4000007861280FD100210948FFF736FE002105
:100D50000748FFF734FE00210548FFF732FE002167
:100D60000348FFF730FE54E7003801400000002040
:100D700000040040940D000800000020180000004E
:100D800028010008AC0D00081800002060060000D3
:100D900044010008000000000001020304010203F6
:0C0DA00004060708090204060800000011
:04000005080000ED02
:00000001FF
